{"abi":[{"type":"constructor","inputs":[],"stateMutability":"nonpayable"},{"type":"receive","stateMutability":"payable"},{"type":"function","name":"CLAIM_TYPEHASH","inputs":[],"outputs":[{"name":"","type":"bytes32","internalType":"bytes32"}],"stateMutability":"view"},{"type":"function","name":"DOMAIN_SEPARATOR","inputs":[],"outputs":[{"name":"","type":"bytes32","internalType":"bytes32"}],"stateMutability":"view"},{"type":"function","name":"claimReward","inputs":[{"name":"amount","type":"uint256","internalType":"uint256"},{"name":"nonce","type":"uint256","internalType":"uint256"},{"name":"signature","type":"bytes","internalType":"bytes"}],"outputs":[],"stateMutability":"nonpayable"},{"type":"function","name":"enterBattle","inputs":[{"name":"battleId","type":"string","internalType":"string"}],"outputs":[],"stateMutability":"payable"},{"type":"function","name":"nonces","inputs":[{"name":"","type":"address","internalType":"address"}],"outputs":[{"name":"","type":"uint256","internalType":"uint256"}],"stateMutability":"view"},{"type":"function","name":"owner","inputs":[],"outputs":[{"name":"","type":"address","internalType":"address"}],"stateMutability":"view"},{"type":"function","name":"setSigner","inputs":[{"name":"_newSigner","type":"address","internalType":"address"}],"outputs":[],"stateMutability":"nonpayable"},{"type":"function","name":"signer","inputs":[],"outputs":[{"name":"","type":"address","internalType":"address"}],"stateMutability":"view"},{"type":"function","name":"usedSignatures","inputs":[{"name":"","type":"bytes","internalType":"bytes"}],"outputs":[{"name":"","type":"bool","internalType":"bool"}],"stateMutability":"view"},{"type":"function","name":"withdraw","inputs":[],"outputs":[],"stateMutability":"nonpayable"},{"type":"event","name":"BattleEntered","inputs":[{"name":"user","type":"address","indexed":true,"internalType":"address"},{"name":"battleId","type":"string","indexed":false,"internalType":"string"},{"name":"amount","type":"uint256","indexed":false,"internalType":"uint256"}],"anonymous":false},{"type":"event","name":"RewardClaimed","inputs":[{"name":"user","type":"address","indexed":true,"internalType":"address"},{"name":"amount","type":"uint256","indexed":false,"internalType":"uint256"},{"name":"nonce","type":"uint256","indexed":false,"internalType":"uint256"}],"anonymous":false},{"type":"event","name":"SignerChanged","inputs":[{"name":"oldSigner","type":"address","indexed":false,"internalType":"address"},{"name":"newSigner","type":"address","indexed":false,"internalType":"address"}],"anonymous":false}],"bytecode":{"object":"0x608060405234801561000f575f5ffd5b50335f5f6101000a81548173ffffffffffffffffffffffffffffffffffffffff021916908373ffffffffffffffffffffffffffffffffffffffff160217905550735fb66a14a77517519a8b0cb40b333f42e4718a6560015f6101000a81548173ffffffffffffffffffffffffffffffffffffffff021916908373ffffffffffffffffffffffffffffffffffffffff1602179055505f4690507f8b73c3c69bb8fe3d512ecc4cf759cc79239f7b179b0ffacaa9a75d522b39400f6040518060400160405280600b81526020017f426174746c654172656e61000000000000000000000000000000000000000000815250805190602001206040518060400160405280600181526020017f31000000000000000000000000000000000000000000000000000000000000008152508051906020012083306040516020016101589594939291906101e9565b604051602081830303815290604052805190602001206004819055505061023a565b5f819050919050565b61018c8161017a565b82525050565b5f819050919050565b6101a481610192565b82525050565b5f73ffffffffffffffffffffffffffffffffffffffff82169050919050565b5f6101d3826101aa565b9050919050565b6101e3816101c9565b82525050565b5f60a0820190506101fc5f830188610183565b6102096020830187610183565b6102166040830186610183565b610223606083018561019b565b61023060808301846101da565b9695505050505050565b611545806102475f395ff3fe608060405260043610610094575f3560e01c80636c19e783116100585780636c19e7831461014f57806376618f27146101775780637ecebe001461019f5780638da5cb5b146101db578063e949580e146102055761009b565b8063238ac9331461009f5780633644e515146100c95780633ccfd60b146100f35780635a8ca0be146101095780636b0509b1146101255761009b565b3661009b57005b5f5ffd5b3480156100aa575f5ffd5b506100b3610241565b6040516100c09190610ade565b60405180910390f35b3480156100d4575f5ffd5b506100dd610266565b6040516100ea9190610b0f565b60405180910390f35b3480156100fe575f5ffd5b5061010761026c565b005b610123600480360381019061011e9190610b9a565b6103a7565b005b348015610130575f5ffd5b506101396103fd565b6040516101469190610b0f565b60405180910390f35b34801561015a575f5ffd5b5061017560048036038101906101709190610c0f565b610421565b005b348015610182575f5ffd5b5061019d60048036038101906101989190610cc2565b610551565b005b3480156101aa575f5ffd5b506101c560048036038101906101c09190610c0f565b610969565b6040516101d29190610d42565b60405180910390f35b3480156101e6575f5ffd5b506101ef61097e565b6040516101fc9190610ade565b60405180910390f35b348015610210575f5ffd5b5061022b60048036038101906102269190610e93565b6109a2565b6040516102389190610ef4565b60405180910390f35b60015f9054906101000a900473ffffffffffffffffffffffffffffffffffffffff1681565b60045481565b5f5f9054906101000a900473ffffffffffffffffffffffffffffffffffffffff1673ffffffffffffffffffffffffffffffffffffffff163373ffffffffffffffffffffffffffffffffffffffff16146102fa576040517f08c379a00000000000000000000000000000000000000000000000000000000081526004016102f190610f67565b60405180910390fd5b5f4790505f8111610340576040517f08c379a000000000000000000000000000000000000000000000000000000000815260040161033790610fcf565b60405180910390fd5b5f5f9054906101000a900473ffffffffffffffffffffffffffffffffffffffff1673ffffffffffffffffffffffffffffffffffffffff166108fc8290811502906040515f60405180830381858888f193505050501580156103a3573d5f5f3e3d5ffd5b5050565b3373ffffffffffffffffffffffffffffffffffffffff167f7450b4dc5b613457c03b3f2372ed74e349f96cc14a9fc42afe5450258e9624248383346040516103f193929190611019565b60405180910390a25050565b7f617a01a6a96a2aed98829225c52a01b18e620cf3f94f5624823e5508a4c0b3f481565b5f5f9054906101000a900473ffffffffffffffffffffffffffffffffffffffff1673ffffffffffffffffffffffffffffffffffffffff163373ffffffffffffffffffffffffffffffffffffffff16146104af576040517f08c379a00000000000000000000000000000000000000000000000000000000081526004016104a690610f67565b60405180910390fd5b5f60015f9054906101000a900473ffffffffffffffffffffffffffffffffffffffff1690508160015f6101000a81548173ffffffffffffffffffffffffffffffffffffffff021916908373ffffffffffffffffffffffffffffffffffffffff1602179055507feeb293e1f8f3a9db91ade748726387ed1352ca78f5430c5f06fe3d1e1ad505798183604051610545929190611049565b60405180910390a15050565b6003828260405161056392919061109e565b90815260200160405180910390205f9054906101000a900460ff16156105be576040517f08c379a00000000000000000000000000000000000000000000000000000000081526004016105b590611100565b60405180910390fd5b60025f3373ffffffffffffffffffffffffffffffffffffffff1673ffffffffffffffffffffffffffffffffffffffff1681526020019081526020015f2054831461063d576040517f08c379a000000000000000000000000000000000000000000000000000000000815260040161063490611168565b60405180910390fd5b83471015610680576040517f08c379a0000000000000000000000000000000000000000000000000000000008152600401610677906111d0565b60405180910390fd5b5f7f617a01a6a96a2aed98829225c52a01b18e620cf3f94f5624823e5508a4c0b3f43386866040516020016106b894939291906111ee565b6040516020818303038152906040528051906020012090505f600454826040516020016106e69291906112a5565b6040516020818303038152906040528051906020012090505f61074c8286868080601f0160208091040260200160405190810160405280939291908181526020018383808284375f81840152601f19601f820116905080830192505050505050506109d7565b905060015f9054906101000a900473ffffffffffffffffffffffffffffffffffffffff1673ffffffffffffffffffffffffffffffffffffffff168173ffffffffffffffffffffffffffffffffffffffff16146107dd576040517f08c379a00000000000000000000000000000000000000000000000000000000081526004016107d490611325565b60405180910390fd5b6001600386866040516107f192919061109e565b90815260200160405180910390205f6101000a81548160ff02191690831515021790555060025f3373ffffffffffffffffffffffffffffffffffffffff1673ffffffffffffffffffffffffffffffffffffffff1681526020019081526020015f205f81548092919061086290611370565b91905055505f3373ffffffffffffffffffffffffffffffffffffffff168860405161088c906113da565b5f6040518083038185875af1925050503d805f81146108c6576040519150601f19603f3d011682016040523d82523d5f602084013e6108cb565b606091505b505090508061090f576040517f08c379a000000000000000000000000000000000000000000000000000000000815260040161090690611438565b60405180910390fd5b3373ffffffffffffffffffffffffffffffffffffffff167ff01da32686223933d8a18a391060918c7f11a3648639edd87ae013e2e27317438989604051610957929190611456565b60405180910390a25050505050505050565b6002602052805f5260405f205f915090505481565b5f5f9054906101000a900473ffffffffffffffffffffffffffffffffffffffff1681565b6003818051602081018201805184825260208301602085012081835280955050505050505f915054906101000a900460ff1681565b5f60418251146109e9575f9050610a99565b5f5f5f602085015192506040850151915060608501515f1a9050601b8160ff161015610a1f57601b81610a1c9190611489565b90505b601b8160ff1614158015610a375750601c8160ff1614155b15610a47575f9350505050610a99565b6001868285856040515f8152602001604052604051610a6994939291906114cc565b6020604051602081039080840390855afa158015610a89573d5f5f3e3d5ffd5b5050506020604051035193505050505b92915050565b5f73ffffffffffffffffffffffffffffffffffffffff82169050919050565b5f610ac882610a9f565b9050919050565b610ad881610abe565b82525050565b5f602082019050610af15f830184610acf565b92915050565b5f819050919050565b610b0981610af7565b82525050565b5f602082019050610b225f830184610b00565b92915050565b5f604051905090565b5f5ffd5b5f5ffd5b5f5ffd5b5f5ffd5b5f5ffd5b5f5f83601f840112610b5a57610b59610b39565b5b8235905067ffffffffffffffff811115610b7757610b76610b3d565b5b602083019150836001820283011115610b9357610b92610b41565b5b9250929050565b5f5f60208385031215610bb057610baf610b31565b5b5f83013567ffffffffffffffff811115610bcd57610bcc610b35565b5b610bd985828601610b45565b92509250509250929050565b610bee81610abe565b8114610bf8575f5ffd5b50565b5f81359050610c0981610be5565b92915050565b5f60208284031215610c2457610c23610b31565b5b5f610c3184828501610bfb565b91505092915050565b5f819050919050565b610c4c81610c3a565b8114610c56575f5ffd5b50565b5f81359050610c6781610c43565b92915050565b5f5f83601f840112610c8257610c81610b39565b5b8235905067ffffffffffffffff811115610c9f57610c9e610b3d565b5b602083019150836001820283011115610cbb57610cba610b41565b5b9250929050565b5f5f5f5f60608587031215610cda57610cd9610b31565b5b5f610ce787828801610c59565b9450506020610cf887828801610c59565b935050604085013567ffffffffffffffff811115610d1957610d18610b35565b5b610d2587828801610c6d565b925092505092959194509250565b610d3c81610c3a565b82525050565b5f602082019050610d555f830184610d33565b92915050565b5f5ffd5b5f601f19601f8301169050919050565b7f4e487b71000000000000000000000000000000000000000000000000000000005f52604160045260245ffd5b610da582610d5f565b810181811067ffffffffffffffff82111715610dc457610dc3610d6f565b5b80604052505050565b5f610dd6610b28565b9050610de28282610d9c565b919050565b5f67ffffffffffffffff821115610e0157610e00610d6f565b5b610e0a82610d5f565b9050602081019050919050565b828183375f83830152505050565b5f610e37610e3284610de7565b610dcd565b905082815260208101848484011115610e5357610e52610d5b565b5b610e5e848285610e17565b509392505050565b5f82601f830112610e7a57610e79610b39565b5b8135610e8a848260208601610e25565b91505092915050565b5f60208284031215610ea857610ea7610b31565b5b5f82013567ffffffffffffffff811115610ec557610ec4610b35565b5b610ed184828501610e66565b91505092915050565b5f8115159050919050565b610eee81610eda565b82525050565b5f602082019050610f075f830184610ee5565b92915050565b5f82825260208201905092915050565b7f4f6e6c79206f776e657220616c6c6f77656400000000000000000000000000005f82015250565b5f610f51601283610f0d565b9150610f5c82610f1d565b602082019050919050565b5f6020820190508181035f830152610f7e81610f45565b9050919050565b7f4e6f2062616c616e636520746f207769746864726177000000000000000000005f82015250565b5f610fb9601683610f0d565b9150610fc482610f85565b602082019050919050565b5f6020820190508181035f830152610fe681610fad565b9050919050565b5f610ff88385610f0d565b9350611005838584610e17565b61100e83610d5f565b840190509392505050565b5f6040820190508181035f830152611032818587610fed565b90506110416020830184610d33565b949350505050565b5f60408201905061105c5f830185610acf565b6110696020830184610acf565b9392505050565b5f81905092915050565b5f6110858385611070565b9350611092838584610e17565b82840190509392505050565b5f6110aa82848661107a565b91508190509392505050565b7f5369676e617475726520616c72656164792075736564000000000000000000005f82015250565b5f6110ea601683610f0d565b91506110f5826110b6565b602082019050919050565b5f6020820190508181035f830152611117816110de565b9050919050565b7f496e76616c6964206e6f6e6365000000000000000000000000000000000000005f82015250565b5f611152600d83610f0d565b915061115d8261111e565b602082019050919050565b5f6020820190508181035f83015261117f81611146565b9050919050565b7f496e73756666696369656e7420636f6e74726163742062616c616e63650000005f82015250565b5f6111ba601d83610f0d565b91506111c582611186565b602082019050919050565b5f6020820190508181035f8301526111e7816111ae565b9050919050565b5f6080820190506112015f830187610b00565b61120e6020830186610acf565b61121b6040830185610d33565b6112286060830184610d33565b95945050505050565b5f81905092915050565b7f19010000000000000000000000000000000000000000000000000000000000005f82015250565b5f61126f600283611231565b915061127a8261123b565b600282019050919050565b5f819050919050565b61129f61129a82610af7565b611285565b82525050565b5f6112af82611263565b91506112bb828561128e565b6020820191506112cb828461128e565b6020820191508190509392505050565b7f496e76616c6964207369676e61747572650000000000000000000000000000005f82015250565b5f61130f601183610f0d565b915061131a826112db565b602082019050919050565b5f6020820190508181035f83015261133c81611303565b9050919050565b7f4e487b71000000000000000000000000000000000000000000000000000000005f52601160045260245ffd5b5f61137a82610c3a565b91507fffffffffffffffffffffffffffffffffffffffffffffffffffffffffffffffff82036113ac576113ab611343565b5b600182019050919050565b50565b5f6113c55f83611070565b91506113d0826113b7565b5f82019050919050565b5f6113e4826113ba565b9150819050919050565b7f5472616e73666572206661696c656400000000000000000000000000000000005f82015250565b5f611422600f83610f0d565b915061142d826113ee565b602082019050919050565b5f6020820190508181035f83015261144f81611416565b9050919050565b5f6040820190506114695f830185610d33565b6114766020830184610d33565b9392505050565b5f60ff82169050919050565b5f6114938261147d565b915061149e8361147d565b9250828201905060ff8111156114b7576114b6611343565b5b92915050565b6114c68161147d565b82525050565b5f6080820190506114df5f830187610b00565b6114ec60208301866114bd565b6114f96040830185610b00565b6115066060830184610b00565b9594505050505056fea2646970667358221220c7fbddcf852d29434d5cb2751b4643e3836178a0a41e9841c164f90573af861a64736f6c63430008210033","linkReferences":{}},"methodIdentifiers":{"CLAIM_TYPEHASH()":"6b0509b1","DOMAIN_SEPARATOR()":"3644e515","claimReward(uint256,uint256,bytes)":"76618f27","enterBattle(string)":"5a8ca0be","nonces(address)":"7ecebe00","owner()":"8da5cb5b","setSigner(address)":"6c19e783","signer()":"238ac933","usedSignatures(bytes)":"e949580e","withdraw()":"3ccfd60b"},"id":0}